:100000000C942A000C9447000C9447000C94470071
:100010000C9447000C9447000C9447000C94470044
:100020000C9447000C9447000C9447000C94470034
:100030000C9447000C9447000C9447000C94470024
:100040000C9447000C9447000C9447000C94470014
:100050000C94470011241FBECFE5D4E0DEBFCDBF16
:1000600010E0A0E6B0E0E4E9F5E002C005900D92F2
:10007000A836B107D9F710E0A8E6B0E001C01D929C
:10008000A737B107E1F70E9464020C94C8020C94F0
:10009000000089EF90E00197F1F700C00000A898F8
:1000A000A99880E385BBAA9AE1EEF4E03197F1F7D5
:1000B00000C00000AA98E9EFF0E03197F1F700C026
:1000C0000000A898A99885BBAA9AE1EEF4E03197C0
:1000D000F1F700C00000AA98E9EFF0E03197F1F7DE
:1000E00000C00000A898A99885BBAA9A81EE94E068
:1000F0000197F1F700C00000AA98E9EFF0E031970E
:10010000F1F700C00000A898A99880E285BBAA9AE0
:1001100081EE94E00197F1F700C00000AA980895DD
:1001200095B39F7095BB95B3282F207F922B95BBDD
:10013000A898A998AA9AE1EEF4E03197F1F700C0E7
:100140000000AA9895B39F7095BB95B38295807F68
:10015000892B85BBA898A998AA9A81EE94E001976B
:10016000F1F700C00000AA98089589EF90E0019788
:10017000F1F700C0000088E20E94900081E00E9438
:10018000900086E00E9490008EE00E94900080E83F
:100190000E949000089595B39F7095BB95B3282F4A
:1001A000207F922B95BBA89AA998AA9AE1EEF4E039
:1001B0003197F1F700C00000AA9895B39F7095BBE6
:1001C00095B38295807F892B85BBA89AA998AA9A16
:1001D00081EE94E00197F1F700C00000AA9808951D
:1001E00080E80E9490000895CF93DF93EC0188810E
:1001F000882331F021960E94CB0089918823D9F77A
:10020000DF91CF910895823079F0833018F48130F6
:10021000C9F405C0833069F08430A1F40FC0862F83
:1002200081580E9490000895862F81540E9490006A
:100230000895862F8D560E9490000895862F8D5226
:100240000E94900008950F931F93CF93DF938A012C
:10025000E901882311F0662319F40E94F00002C01E
:100260000E940301C530D10571F4C80160E177E255
:100270000E94B402CB01C09690936C0080936B00F7
:100280000E94CB0003C0C430D105B9F4C80168EEA8
:1002900073E00E94B402CB01709376006093750006
:1002A0006AE070E00E94B402C09690936E00809362
:1002B0006D000E94CB0081E001C080E0C330D10519
:1002C00011F08130B1F4C80164E670E00E94B4021C
:1002D000CB0170937600609375006AE070E00E9435
:1002E000B402C0969093700080936F000E94CB0080
:1002F00081E0C230D10511F08130B1F42AE030E064
:10030000C801B9010E94B402CB01709376006093DA
:100310007500B9010E94B402C09690937200809358
:1003200071000E94CB0081E0C130D10511F0813015
:1003300061F4C8016AE070E00E94B402C096909334
:100340007400809373000E94CB00C630D1051CF06E
:1003500085E40E94CB00DF91CF911F910F9108950A
:10036000A39AAB98089584B3876F84BB85B38078D4
:1003700085BB08951ABA1BBA08950E94B0010E9465
:10038000B3010E94BA01089516B880E287B980E8E7
:1003900088B986E886B908958770806287B9369AE9
:1003A000349BFECF85B1349A089583B3886085BBB2
:1003B0000895CF93DF93D82FC62F842F0E94CC01AE
:1003C000482F809368008D2F6C2F50E023E030E0A1
:1003D0000E942301DF91CF91089583B3877F85BB6E
:1003E0000895F8940E94BD010E94C4017894089574
:1003F000CF93DF93C82FD92FC230D10560F580FD90
:100400000CC00E94ED018FE39DE0A3E0815090407D
:10041000A040E1F700C000000BC00E94D5018FE3AF
:100420009DE0A3E081509040A040E1F700C00000B3
:100430008091660090916700019690936700809389
:1004400066008FE39DE0A3E081509040A040E1F77B
:1004500000C0000036C0282F392F332314F42F5F3B
:100460003F4FC901959587950E94F801C0FD0CC0CA
:100470000E94ED018FE39DE0A3E081509040A040F9
:10048000E1F700C000000BC00E94D5018FE39DE0A2
:10049000A3E081509040A040E1F700C000008091AF
:1004A00066009091670001969093670080936600C4
:1004B0008FE39DE0A3E081509040A040E1F700C0B1
:1004C0000000DF91CF910895CF92DF92EF92FF92DB
:1004D0000F931F93CF93DF9300D000D000D0CDB700
:1004E000DEB70E94F1010E9449000E94B500DE01C2
:1004F0001196E0E6F0E086E001900D928150E1F780
:100500008E010F5F1F4F0F2EF6E0EF2EFF24F02D10
:10051000EC0EFD1ECC24DD24C394F80181918F01E3
:100520002FE33DE043E0215030404040E1F700C080
:100530000000D0926700C092660090E00E94F8012F
:100540000E151F0551F780E090E026960FB6F8943F
:10055000DEBF0FBECDBFDF91CF911F910F91FF90F6
:10056000EF90DF90CF900895AA1BBB1B51E107C00D
:10057000AA1FBB1FA617B70710F0A61BB70B881F33
:10058000991F5A95A9F780959095BC01CD010895C2
:04059000F894FFCF0D
:080594004142484159000100F9
:00000001FF
