:100000000C942A000C9447000C9447000C94470071
:100010000C9447000C9447000C9447000C94470044
:100020000C9447000C9447000C9447000C94470034
:100030000C9447000C9447000C9447000C94470024
:100040000C9447000C9447000C9447000C94470014
:100050000C94470011241FBECFE5D4E0DEBFCDBF16
:1000600010E0A0E6B0E0ECE8F5E002C005900D92EB
:10007000A836B107D9F710E0A8E6B0E001C01D929C
:10008000A737B107E1F70E9442020C94C4020C9416
:10009000000089EF90E00197F1F700C00000A898F8
:1000A000A99880E385BBAA9AE1EEF4E03197F1F7D5
:1000B00000C00000AA98E9EFF0E03197F1F700C026
:1000C0000000A898A99885BBAA9AE1EEF4E03197C0
:1000D000F1F700C00000AA98E9EFF0E03197F1F7DE
:1000E00000C00000A898A99885BBAA9A81EE94E068
:1000F0000197F1F700C00000AA98E9EFF0E031970E
:10010000F1F700C00000A898A99880E285BBAA9AE0
:1001100081EE94E00197F1F700C00000AA980895DD
:1001200095B39F7095BB95B3282F207F922B95BBDD
:10013000A898A998AA9AE1EEF4E03197F1F700C0E7
:100140000000AA9895B39F7095BB95B38295807F68
:10015000892B85BBA898A998AA9A81EE94E001976B
:10016000F1F700C00000AA98089589EF90E0019788
:10017000F1F700C0000088E20E94900081E00E9438
:10018000900086E00E9490008EE00E94900080E83F
:100190000E949000089595B39F7095BB95B3282F4A
:1001A000207F922B95BBA89AA998AA9AE1EEF4E039
:1001B0003197F1F700C00000AA9895B39F7095BBE6
:1001C00095B38295807F892B85BBA89AA998AA9A16
:1001D00081EE94E00197F1F700C00000AA9808951D
:1001E00080E80E9490000895CF93DF93EC0188810E
:1001F000882331F021960E94CB0089918823D9F77A
:10020000DF91CF910895823079F0833018F48130F6
:10021000C9F405C0833069F08430A1F40FC0862F83
:1002200081580E9490000895862F81540E9490006A
:100230000895862F8D560E9490000895862F8D5226
:100240000E94900008950F931F93CF93DF938A012C
:10025000E901882311F0662319F40E94F00002C01E
:100260000E940301C530D10571F4C80160E177E255
:100270000E949D02CB01C09690936C0080936B000E
:100280000E94CB0003C0C430D105B9F4C80168EEA8
:1002900073E00E949D02CB0170937600609375001D
:1002A0006AE070E00E949D02C09690936E00809379
:1002B0006D000E94CB0081E001C080E0C330D10519
:1002C00011F08130B1F4C80164E670E00E949D0233
:1002D000CB0170937600609375006AE070E00E9435
:1002E0009D02C0969093700080936F000E94CB0097
:1002F00081E0C230D10511F08130B1F42AE030E064
:10030000C801B9010E949D02CB01709376006093F1
:100310007500B9010E949D02C0969093720080936F
:1003200071000E94CB0081E0C130D10511F0813015
:1003300061F4C8016AE070E00E949D02C09690934B
:100340007400809373000E94CB00C630D1051CF06E
:1003500085E40E94CB00DF91CF911F910F9108950A
:10036000A39AAB98089584B3876F84BB85B38078D4
:1003700085BB08951ABA1BBA08950E94B0010E9465
:10038000B3010E94BA01089516B880E287B980E8E7
:1003900088B986E886B908958770806287B9369AE9
:1003A000349BFECF85B1349A089583B3886085BBB2
:1003B0000895CF93DF93D82FC62F842F0E94CC01AE
:1003C000482F809368008D2F6C2F50E023E030E0A1
:1003D0000E942301DF91CF91089583B3877F85BB6E
:1003E0000895F8940E94BD010E94C4017894089574
:1003F000CF93DF93EC0182309105D8F481E06091D6
:100400006600AE0121E030E00E9423018091660089
:1004100090916700019690936700809366008FE348
:100420009DE0A3E081509040A040E1F700C00000B3
:1004300026C0DD230CF40196959587950E94F8015E
:10044000CE0162E070E00E94B102AC0181E06091F7
:10045000660021E030E00E942301809166009091C7
:100460006700019690936700809366008FE39DE09C
:10047000A3E081509040A040E1F700C00000DF9170
:10048000CF910895AF92BF92DF92EF92FF920F93B8
:100490001F93CF93DF9300D000D000D0CDB7DEB74D
:1004A0000E94F1010E9449000E94B500DE011196F0
:1004B000E0E6F0E086E001900D928150E1F78E01D8
:1004C0000F5F1F4F0F2EF6E0EF2EFF24F02DEC0EE6
:1004D000FD1EAA24BB24A394D801DD908D0181E0E8
:1004E00060E04D2D50E022E030E00E9423018FE3D8
:1004F0009DE0A3E081509040A040E1F700C00000E3
:10050000B0926700A09266008D2D90E00E94F801E5
:100510000E151F0509F780E090E026960FB6F894B7
:10052000DEBF0FBECDBFDF91CF911F910F91FF9026
:10053000EF90DF90BF90AF900895AA1BBB1B51E1D5
:1005400007C0AA1FBB1FA617B70710F0A61BB70B43
:10055000881F991F5A95A9F780959095BC01CD01E8
:10056000089597FB092E07260AD077FD04D0E5DF12
:1005700006D000201AF4709561957F4F0895F6F724
:0C058000909581959F4F0895F894FFCF4F
:08058C00414248415900010001
:00000001FF
